{
  "_format": "hh-sol-artifact-1",
  "contractName": "DSU",
  "sourceName": "contracts/DSU.sol",
  "abi": [
    {
      "inputs": [
        {
          "internalType": "address",
          "name": "initialOwner",
          "type": "address"
        }
      ],
      "stateMutability": "nonpayable",
      "type": "constructor"
    },
    {
      "inputs": [
        {
          "internalType": "address",
          "name": "sender",
          "type": "address"
        },
        {
          "internalType": "uint256",
          "name": "tokenId",
          "type": "uint256"
        },
        {
          "internalType": "address",
          "name": "owner",
          "type": "address"
        }
      ],
      "name": "ERC721IncorrectOwner",
      "type": "error"
    },
    {
      "inputs": [
        {
          "internalType": "address",
          "name": "operator",
          "type": "address"
        },
        {
          "internalType": "uint256",
          "name": "tokenId",
          "type": "uint256"
        }
      ],
      "name": "ERC721InsufficientApproval",
      "type": "error"
    },
    {
      "inputs": [
        {
          "internalType": "address",
          "name": "approver",
          "type": "address"
        }
      ],
      "name": "ERC721InvalidApprover",
      "type": "error"
    },
    {
      "inputs": [
        {
          "internalType": "address",
          "name": "operator",
          "type": "address"
        }
      ],
      "name": "ERC721InvalidOperator",
      "type": "error"
    },
    {
      "inputs": [
        {
          "internalType": "address",
          "name": "owner",
          "type": "address"
        }
      ],
      "name": "ERC721InvalidOwner",
      "type": "error"
    },
    {
      "inputs": [
        {
          "internalType": "address",
          "name": "receiver",
          "type": "address"
        }
      ],
      "name": "ERC721InvalidReceiver",
      "type": "error"
    },
    {
      "inputs": [
        {
          "internalType": "address",
          "name": "sender",
          "type": "address"
        }
      ],
      "name": "ERC721InvalidSender",
      "type": "error"
    },
    {
      "inputs": [
        {
          "internalType": "uint256",
          "name": "tokenId",
          "type": "uint256"
        }
      ],
      "name": "ERC721NonexistentToken",
      "type": "error"
    },
    {
      "inputs": [
        {
          "internalType": "address",
          "name": "owner",
          "type": "address"
        }
      ],
      "name": "OwnableInvalidOwner",
      "type": "error"
    },
    {
      "inputs": [
        {
          "internalType": "address",
          "name": "account",
          "type": "address"
        }
      ],
      "name": "OwnableUnauthorizedAccount",
      "type": "error"
    },
    {
      "anonymous": false,
      "inputs": [
        {
          "indexed": true,
          "internalType": "address",
          "name": "owner",
          "type": "address"
        },
        {
          "indexed": true,
          "internalType": "address",
          "name": "approved",
          "type": "address"
        },
        {
          "indexed": true,
          "internalType": "uint256",
          "name": "tokenId",
          "type": "uint256"
        }
      ],
      "name": "Approval",
      "type": "event"
    },
    {
      "anonymous": false,
      "inputs": [
        {
          "indexed": true,
          "internalType": "address",
          "name": "owner",
          "type": "address"
        },
        {
          "indexed": true,
          "internalType": "address",
          "name": "operator",
          "type": "address"
        },
        {
          "indexed": false,
          "internalType": "bool",
          "name": "approved",
          "type": "bool"
        }
      ],
      "name": "ApprovalForAll",
      "type": "event"
    },
    {
      "anonymous": false,
      "inputs": [
        {
          "indexed": false,
          "internalType": "uint256",
          "name": "_fromTokenId",
          "type": "uint256"
        },
        {
          "indexed": false,
          "internalType": "uint256",
          "name": "_toTokenId",
          "type": "uint256"
        }
      ],
      "name": "BatchMetadataUpdate",
      "type": "event"
    },
    {
      "anonymous": false,
      "inputs": [
        {
          "indexed": false,
          "internalType": "uint256",
          "name": "_tokenId",
          "type": "uint256"
        }
      ],
      "name": "MetadataUpdate",
      "type": "event"
    },
    {
      "anonymous": false,
      "inputs": [
        {
          "indexed": true,
          "internalType": "address",
          "name": "previousOwner",
          "type": "address"
        },
        {
          "indexed": true,
          "internalType": "address",
          "name": "newOwner",
          "type": "address"
        }
      ],
      "name": "OwnershipTransferred",
      "type": "event"
    },
    {
      "anonymous": false,
      "inputs": [
        {
          "indexed": true,
          "internalType": "address",
          "name": "from",
          "type": "address"
        },
        {
          "indexed": true,
          "internalType": "address",
          "name": "to",
          "type": "address"
        },
        {
          "indexed": true,
          "internalType": "uint256",
          "name": "tokenId",
          "type": "uint256"
        }
      ],
      "name": "Transfer",
      "type": "event"
    },
    {
      "inputs": [
        {
          "internalType": "address",
          "name": "to",
          "type": "address"
        },
        {
          "internalType": "uint256",
          "name": "tokenId",
          "type": "uint256"
        }
      ],
      "name": "approve",
      "outputs": [],
      "stateMutability": "nonpayable",
      "type": "function"
    },
    {
      "inputs": [
        {
          "internalType": "address",
          "name": "owner",
          "type": "address"
        }
      ],
      "name": "balanceOf",
      "outputs": [
        {
          "internalType": "uint256",
          "name": "",
          "type": "uint256"
        }
      ],
      "stateMutability": "view",
      "type": "function"
    },
    {
      "inputs": [
        {
          "internalType": "uint256",
          "name": "tokenId",
          "type": "uint256"
        }
      ],
      "name": "getApproved",
      "outputs": [
        {
          "internalType": "address",
          "name": "",
          "type": "address"
        }
      ],
      "stateMutability": "view",
      "type": "function"
    },
    {
      "inputs": [
        {
          "internalType": "address",
          "name": "owner",
          "type": "address"
        },
        {
          "internalType": "address",
          "name": "operator",
          "type": "address"
        }
      ],
      "name": "isApprovedForAll",
      "outputs": [
        {
          "internalType": "bool",
          "name": "",
          "type": "bool"
        }
      ],
      "stateMutability": "view",
      "type": "function"
    },
    {
      "inputs": [],
      "name": "minted",
      "outputs": [
        {
          "internalType": "uint256",
          "name": "",
          "type": "uint256"
        }
      ],
      "stateMutability": "view",
      "type": "function"
    },
    {
      "inputs": [],
      "name": "name",
      "outputs": [
        {
          "internalType": "string",
          "name": "",
          "type": "string"
        }
      ],
      "stateMutability": "view",
      "type": "function"
    },
    {
      "inputs": [],
      "name": "owner",
      "outputs": [
        {
          "internalType": "address",
          "name": "",
          "type": "address"
        }
      ],
      "stateMutability": "view",
      "type": "function"
    },
    {
      "inputs": [
        {
          "internalType": "uint256",
          "name": "tokenId",
          "type": "uint256"
        }
      ],
      "name": "ownerOf",
      "outputs": [
        {
          "internalType": "address",
          "name": "",
          "type": "address"
        }
      ],
      "stateMutability": "view",
      "type": "function"
    },
    {
      "inputs": [
        {
          "internalType": "address",
          "name": "recipient",
          "type": "address"
        }
      ],
      "name": "payToMint",
      "outputs": [
        {
          "internalType": "uint256",
          "name": "",
          "type": "uint256"
        }
      ],
      "stateMutability": "payable",
      "type": "function"
    },
    {
      "inputs": [],
      "name": "renounceOwnership",
      "outputs": [],
      "stateMutability": "nonpayable",
      "type": "function"
    },
    {
      "inputs": [
        {
          "internalType": "address",
          "name": "to",
          "type": "address"
        },
        {
          "internalType": "string",
          "name": "uri",
          "type": "string"
        }
      ],
      "name": "safeMint",
      "outputs": [],
      "stateMutability": "nonpayable",
      "type": "function"
    },
    {
      "inputs": [
        {
          "internalType": "address",
          "name": "from",
          "type": "address"
        },
        {
          "internalType": "address",
          "name": "to",
          "type": "address"
        },
        {
          "internalType": "uint256",
          "name": "tokenId",
          "type": "uint256"
        }
      ],
      "name": "safeTransferFrom",
      "outputs": [],
      "stateMutability": "nonpayable",
      "type": "function"
    },
    {
      "inputs": [
        {
          "internalType": "address",
          "name": "from",
          "type": "address"
        },
        {
          "internalType": "address",
          "name": "to",
          "type": "address"
        },
        {
          "internalType": "uint256",
          "name": "tokenId",
          "type": "uint256"
        },
        {
          "internalType": "bytes",
          "name": "data",
          "type": "bytes"
        }
      ],
      "name": "safeTransferFrom",
      "outputs": [],
      "stateMutability": "nonpayable",
      "type": "function"
    },
    {
      "inputs": [
        {
          "internalType": "address",
          "name": "operator",
          "type": "address"
        },
        {
          "internalType": "bool",
          "name": "approved",
          "type": "bool"
        }
      ],
      "name": "setApprovalForAll",
      "outputs": [],
      "stateMutability": "nonpayable",
      "type": "function"
    },
    {
      "inputs": [
        {
          "internalType": "bytes4",
          "name": "interfaceId",
          "type": "bytes4"
        }
      ],
      "name": "supportsInterface",
      "outputs": [
        {
          "internalType": "bool",
          "name": "",
          "type": "bool"
        }
      ],
      "stateMutability": "view",
      "type": "function"
    },
    {
      "inputs": [],
      "name": "symbol",
      "outputs": [
        {
          "internalType": "string",
          "name": "",
          "type": "string"
        }
      ],
      "stateMutability": "view",
      "type": "function"
    },
    {
      "inputs": [
        {
          "internalType": "uint256",
          "name": "tokenId",
          "type": "uint256"
        }
      ],
      "name": "tokenURI",
      "outputs": [
        {
          "internalType": "string",
          "name": "",
          "type": "string"
        }
      ],
      "stateMutability": "view",
      "type": "function"
    },
    {
      "inputs": [
        {
          "internalType": "address",
          "name": "from",
          "type": "address"
        },
        {
          "internalType": "address",
          "name": "to",
          "type": "address"
        },
        {
          "internalType": "uint256",
          "name": "tokenId",
          "type": "uint256"
        }
      ],
      "name": "transferFrom",
      "outputs": [],
      "stateMutability": "nonpayable",
      "type": "function"
    },
    {
      "inputs": [
        {
          "internalType": "address",
          "name": "newOwner",
          "type": "address"
        }
      ],
      "name": "transferOwnership",
      "outputs": [],
      "stateMutability": "nonpayable",
      "type": "function"
    },
    {
      "inputs": [],
      "name": "withdraw",
      "outputs": [],
      "stateMutability": "nonpayable",
      "type": "function"
    }
  ],
  "bytecode": "0x60806040526001600a5534801561001557600080fd5b5060405161324d38038061324d83398181016040528101906100379190610277565b806040518060400160405280601981526020017f446179616e616e6420536167617220556e6976657273697479000000000000008152506040518060400160405280600381526020017f445355000000000000000000000000000000000000000000000000000000000081525081600090816100b391906104f4565b5080600190816100c391906104f4565b505050600073ffffffffffffffffffffffffffffffffffffffff168173ffffffffffffffffffffffffffffffffffffffff16036101385760006040517f1e4fbdf700000000000000000000000000000000000000000000000000000000815260040161012f91906105d5565b60405180910390fd5b6101478161014e60201b60201c565b50506105f0565b6000600760009054906101000a900473ffffffffffffffffffffffffffffffffffffffff16905081600760006101000a81548173ffffffffffffffffffffffffffffffffffffffff021916908373ffffffffffffffffffffffffffffffffffffffff1602179055508173ffffffffffffffffffffffffffffffffffffffff168173ffffffffffffffffffffffffffffffffffffffff167f8be0079c531659141344cd1fd0a4f28419497f9722a3daafe3b4186f6b6457e060405160405180910390a35050565b600080fd5b600073ffffffffffffffffffffffffffffffffffffffff82169050919050565b600061024482610219565b9050919050565b61025481610239565b811461025f57600080fd5b50565b6000815190506102718161024b565b92915050565b60006020828403121561028d5761028c610214565b5b600061029b84828501610262565b91505092915050565b600081519050919050565b7f4e487b7100000000000000000000000000000000000000000000000000000000600052604160045260246000fd5b7f4e487b7100000000000000000000000000000000000000000000000000000000600052602260045260246000fd5b6000600282049050600182168061032557607f821691505b602082108103610338576103376102de565b5b50919050565b60008190508160005260206000209050919050565b60006020601f8301049050919050565b600082821b905092915050565b6000600883026103a07fffffffffffffffffffffffffffffffffffffffffffffffffffffffffffffffff82610363565b6103aa8683610363565b95508019841693508086168417925050509392505050565b6000819050919050565b6000819050919050565b60006103f16103ec6103e7846103c2565b6103cc565b6103c2565b9050919050565b6000819050919050565b61040b836103d6565b61041f610417826103f8565b848454610370565b825550505050565b600090565b610434610427565b61043f818484610402565b505050565b5b818110156104635761045860008261042c565b600181019050610445565b5050565b601f8211156104a8576104798161033e565b61048284610353565b81016020851015610491578190505b6104a561049d85610353565b830182610444565b50505b505050565b600082821c905092915050565b60006104cb600019846008026104ad565b1980831691505092915050565b60006104e483836104ba565b9150826002028217905092915050565b6104fd826102a4565b67ffffffffffffffff811115610516576105156102af565b5b610520825461030d565b61052b828285610467565b600060209050601f83116001811461055e576000841561054c578287015190505b61055685826104d8565b8655506105be565b601f19841661056c8661033e565b60005b828110156105945784890151825560018201915060208501945060208101905061056f565b868310156105b157848901516105ad601f8916826104ba565b8355505b6001600288020188555050505b505050505050565b6105cf81610239565b82525050565b60006020820190506105ea60008301846105c6565b92915050565b612c4e806105ff6000396000f3fe60806040526004361061011f5760003560e01c806370a08231116100a0578063b88d4fde11610064578063b88d4fde146103c6578063c87b56dd146103ef578063d204c45e1461042c578063e985e9c514610455578063f2fde38b146104925761011f565b806370a08231146102f3578063715018a6146103305780638da5cb5b1461034757806395d89b4114610372578063a22cb4651461039d5761011f565b80633ccfd60b116100e75780633ccfd60b1461021b57806342842e0e146102325780634f02c4201461025b578063585b3282146102865780636352211e146102b65761011f565b806301ffc9a71461012457806306fdde0314610161578063081812fc1461018c578063095ea7b3146101c957806323b872dd146101f2575b600080fd5b34801561013057600080fd5b5061014b60048036038101906101469190611e46565b6104bb565b6040516101589190611e8e565b60405180910390f35b34801561016d57600080fd5b506101766104cd565b6040516101839190611f39565b60405180910390f35b34801561019857600080fd5b506101b360048036038101906101ae9190611f91565b61055f565b6040516101c09190611fff565b60405180910390f35b3480156101d557600080fd5b506101f060048036038101906101eb9190612046565b61057b565b005b3480156101fe57600080fd5b5061021960048036038101906102149190612086565b610591565b005b34801561022757600080fd5b50610230610693565b005b34801561023e57600080fd5b5061025960048036038101906102549190612086565b61079a565b005b34801561026757600080fd5b506102706107ba565b60405161027d91906120e8565b60405180910390f35b6102a0600480360381019061029b9190612103565b6107c0565b6040516102ad91906120e8565b60405180910390f35b3480156102c257600080fd5b506102dd60048036038101906102d89190611f91565b6108c0565b6040516102ea9190611fff565b60405180910390f35b3480156102ff57600080fd5b5061031a60048036038101906103159190612103565b6108d2565b60405161032791906120e8565b60405180910390f35b34801561033c57600080fd5b5061034561098c565b005b34801561035357600080fd5b5061035c6109a0565b6040516103699190611fff565b60405180910390f35b34801561037e57600080fd5b506103876109ca565b6040516103949190611f39565b60405180910390f35b3480156103a957600080fd5b506103c460048036038101906103bf919061215c565b610a5c565b005b3480156103d257600080fd5b506103ed60048036038101906103e891906122d1565b610a72565b005b3480156103fb57600080fd5b5061041660048036038101906104119190611f91565b610a8f565b6040516104239190611f39565b60405180910390f35b34801561043857600080fd5b50610453600480360381019061044e91906123f5565b610aa1565b005b34801561046157600080fd5b5061047c60048036038101906104779190612451565b610add565b6040516104899190611e8e565b60405180910390f35b34801561049e57600080fd5b506104b960048036038101906104b49190612103565b610b71565b005b60006104c682610bf7565b9050919050565b6060600080546104dc906124c0565b80601f0160208091040260200160405190810160405280929190818152602001828054610508906124c0565b80156105555780601f1061052a57610100808354040283529160200191610555565b820191906000526020600020905b81548152906001019060200180831161053857829003601f168201915b5050505050905090565b600061056a82610c58565b5061057482610ce0565b9050919050565b61058d8282610588610d1d565b610d25565b5050565b600073ffffffffffffffffffffffffffffffffffffffff168273ffffffffffffffffffffffffffffffffffffffff16036106035760006040517f64a0ae920000000000000000000000000000000000000000000000000000000081526004016105fa9190611fff565b60405180910390fd5b60006106178383610612610d1d565b610d37565b90508373ffffffffffffffffffffffffffffffffffffffff168173ffffffffffffffffffffffffffffffffffffffff161461068d578382826040517f64283d7b000000000000000000000000000000000000000000000000000000008152600401610684939291906124f1565b60405180910390fd5b50505050565b61069b610f51565b6000479050600081116106e3576040517f08c379a00000000000000000000000000000000000000000000000000000000081526004016106da90612574565b60405180910390fd5b60006106ed6109a0565b73ffffffffffffffffffffffffffffffffffffffff1682604051610710906125c5565b60006040518083038185875af1925050503d806000811461074d576040519150601f19603f3d011682016040523d82523d6000602084013e610752565b606091505b5050905080610796576040517f08c379a000000000000000000000000000000000000000000000000000000000815260040161078d90612626565b60405180910390fd5b5050565b6107b583838360405180602001604052806000815250610a72565b505050565b60095481565b60006611c37937e0800034101561080c576040517f08c379a000000000000000000000000000000000000000000000000000000000815260040161080390612692565b60405180910390fd5b600a5460095410610852576040517f08c379a0000000000000000000000000000000000000000000000000000000008152600401610849906126fe565b60405180910390fd5b6000600860008154809291906108679061274d565b91905055905060006040518060a00160405280606a8152602001612baf606a913990506108948483610fd8565b61089e82826110d1565b600960008154809291906108b19061274d565b91905055508192505050919050565b60006108cb82610c58565b9050919050565b60008073ffffffffffffffffffffffffffffffffffffffff168273ffffffffffffffffffffffffffffffffffffffff16036109455760006040517f89c62b6400000000000000000000000000000000000000000000000000000000815260040161093c9190611fff565b60405180910390fd5b600360008373ffffffffffffffffffffffffffffffffffffffff1673ffffffffffffffffffffffffffffffffffffffff168152602001908152602001600020549050919050565b610994610f51565b61099e600061112d565b565b6000600760009054906101000a900473ffffffffffffffffffffffffffffffffffffffff16905090565b6060600180546109d9906124c0565b80601f0160208091040260200160405190810160405280929190818152602001828054610a05906124c0565b8015610a525780601f10610a2757610100808354040283529160200191610a52565b820191906000526020600020905b815481529060010190602001808311610a3557829003601f168201915b5050505050905090565b610a6e610a67610d1d565b83836111f3565b5050565b610a7d848484610591565b610a8984848484611362565b50505050565b6060610a9a82611519565b9050919050565b610aa9610f51565b600060086000815480929190610abe9061274d565b919050559050610ace838261162c565b610ad881836110d1565b505050565b6000600560008473ffffffffffffffffffffffffffffffffffffffff1673ffffffffffffffffffffffffffffffffffffffff16815260200190815260200160002060008373ffffffffffffffffffffffffffffffffffffffff1673ffffffffffffffffffffffffffffffffffffffff16815260200190815260200160002060009054906101000a900460ff16905092915050565b610b79610f51565b600073ffffffffffffffffffffffffffffffffffffffff168173ffffffffffffffffffffffffffffffffffffffff1603610beb5760006040517f1e4fbdf7000000000000000000000000000000000000000000000000000000008152600401610be29190611fff565b60405180910390fd5b610bf48161112d565b50565b6000634906490660e01b7bffffffffffffffffffffffffffffffffffffffffffffffffffffffff1916827bffffffffffffffffffffffffffffffffffffffffffffffffffffffff19161480610c515750610c508261164a565b5b9050919050565b600080610c648361172c565b9050600073ffffffffffffffffffffffffffffffffffffffff168173ffffffffffffffffffffffffffffffffffffffff1603610cd757826040517f7e273289000000000000000000000000000000000000000000000000000000008152600401610cce91906120e8565b60405180910390fd5b80915050919050565b60006004600083815260200190815260200160002060009054906101000a900473ffffffffffffffffffffffffffffffffffffffff169050919050565b600033905090565b610d328383836001611769565b505050565b600080610d438461172c565b9050600073ffffffffffffffffffffffffffffffffffffffff168373ffffffffffffffffffffffffffffffffffffffff1614610d8557610d8481848661192e565b5b600073ffffffffffffffffffffffffffffffffffffffff168173ffffffffffffffffffffffffffffffffffffffff1614610e1657610dc7600085600080611769565b6001600360008373ffffffffffffffffffffffffffffffffffffffff1673ffffffffffffffffffffffffffffffffffffffff168152602001908152602001600020600082825403925050819055505b600073ffffffffffffffffffffffffffffffffffffffff168573ffffffffffffffffffffffffffffffffffffffff1614610e99576001600360008773ffffffffffffffffffffffffffffffffffffffff1673ffffffffffffffffffffffffffffffffffffffff168152602001908152602001600020600082825401925050819055505b846002600086815260200190815260200160002060006101000a81548173ffffffffffffffffffffffffffffffffffffffff021916908373ffffffffffffffffffffffffffffffffffffffff160217905550838573ffffffffffffffffffffffffffffffffffffffff168273ffffffffffffffffffffffffffffffffffffffff167fddf252ad1be2c89b69c2b068fc378daa952ba7f163c4a11628f55a4df523b3ef60405160405180910390a4809150509392505050565b610f59610d1d565b73ffffffffffffffffffffffffffffffffffffffff16610f776109a0565b73ffffffffffffffffffffffffffffffffffffffff1614610fd657610f9a610d1d565b6040517f118cdaa7000000000000000000000000000000000000000000000000000000008152600401610fcd9190611fff565b60405180910390fd5b565b600073ffffffffffffffffffffffffffffffffffffffff168273ffffffffffffffffffffffffffffffffffffffff160361104a5760006040517f64a0ae920000000000000000000000000000000000000000000000000000000081526004016110419190611fff565b60405180910390fd5b600061105883836000610d37565b9050600073ffffffffffffffffffffffffffffffffffffffff168173ffffffffffffffffffffffffffffffffffffffff16146110cc5760006040517f73c6ac6e0000000000000000000000000000000000000000000000000000000081526004016110c39190611fff565b60405180910390fd5b505050565b806006600084815260200190815260200160002090816110f19190612941565b507ff8e1a15aba9398e019f0b49df1a4fde98ee17ae345cb5f6b5e2c27f5033e8ce78260405161112191906120e8565b60405180910390a15050565b6000600760009054906101000a900473ffffffffffffffffffffffffffffffffffffffff16905081600760006101000a81548173ffffffffffffffffffffffffffffffffffffffff021916908373ffffffffffffffffffffffffffffffffffffffff1602179055508173ffffffffffffffffffffffffffffffffffffffff168173ffffffffffffffffffffffffffffffffffffffff167f8be0079c531659141344cd1fd0a4f28419497f9722a3daafe3b4186f6b6457e060405160405180910390a35050565b600073ffffffffffffffffffffffffffffffffffffffff168273ffffffffffffffffffffffffffffffffffffffff160361126457816040517f5b08ba1800000000000000000000000000000000000000000000000000000000815260040161125b9190611fff565b60405180910390fd5b80600560008573ffffffffffffffffffffffffffffffffffffffff1673ffffffffffffffffffffffffffffffffffffffff16815260200190815260200160002060008473ffffffffffffffffffffffffffffffffffffffff1673ffffffffffffffffffffffffffffffffffffffff16815260200190815260200160002060006101000a81548160ff0219169083151502179055508173ffffffffffffffffffffffffffffffffffffffff168373ffffffffffffffffffffffffffffffffffffffff167f17307eab39ab6107e8899845ad3d59bd9653f200f220920489ca2b5937696c31836040516113559190611e8e565b60405180910390a3505050565b60008373ffffffffffffffffffffffffffffffffffffffff163b1115611513578273ffffffffffffffffffffffffffffffffffffffff1663150b7a026113a6610d1d565b8685856040518563ffffffff1660e01b81526004016113c89493929190612a68565b6020604051808303816000875af192505050801561140457506040513d601f19601f820116820180604052508101906114019190612ac9565b60015b611488573d8060008114611434576040519150601f19603f3d011682016040523d82523d6000602084013e611439565b606091505b50600081510361148057836040517f64a0ae920000000000000000000000000000000000000000000000000000000081526004016114779190611fff565b60405180910390fd5b805181602001fd5b63150b7a0260e01b7bffffffffffffffffffffffffffffffffffffffffffffffffffffffff1916817bffffffffffffffffffffffffffffffffffffffffffffffffffffffff19161461151157836040517f64a0ae920000000000000000000000000000000000000000000000000000000081526004016115089190611fff565b60405180910390fd5b505b50505050565b606061152482610c58565b506000600660008481526020019081526020016000208054611545906124c0565b80601f0160208091040260200160405190810160405280929190818152602001828054611571906124c0565b80156115be5780601f10611593576101008083540402835291602001916115be565b820191906000526020600020905b8154815290600101906020018083116115a157829003601f168201915b5050505050905060006115cf6119f2565b905060008151036115e4578192505050611627565b600082511115611619578082604051602001611601929190612b32565b60405160208183030381529060405292505050611627565b61162284611a09565b925050505b919050565b611646828260405180602001604052806000815250611a72565b5050565b60007f80ac58cd000000000000000000000000000000000000000000000000000000007bffffffffffffffffffffffffffffffffffffffffffffffffffffffff1916827bffffffffffffffffffffffffffffffffffffffffffffffffffffffff1916148061171557507f5b5e139f000000000000000000000000000000000000000000000000000000007bffffffffffffffffffffffffffffffffffffffffffffffffffffffff1916827bffffffffffffffffffffffffffffffffffffffffffffffffffffffff1916145b80611725575061172482611a8e565b5b9050919050565b60006002600083815260200190815260200160002060009054906101000a900473ffffffffffffffffffffffffffffffffffffffff169050919050565b80806117a25750600073ffffffffffffffffffffffffffffffffffffffff168273ffffffffffffffffffffffffffffffffffffffff1614155b156118d65760006117b284610c58565b9050600073ffffffffffffffffffffffffffffffffffffffff168373ffffffffffffffffffffffffffffffffffffffff161415801561181d57508273ffffffffffffffffffffffffffffffffffffffff168173ffffffffffffffffffffffffffffffffffffffff1614155b8015611830575061182e8184610add565b155b1561187257826040517fa9fbf51f0000000000000000000000000000000000000000000000000000000081526004016118699190611fff565b60405180910390fd5b81156118d457838573ffffffffffffffffffffffffffffffffffffffff168273ffffffffffffffffffffffffffffffffffffffff167f8c5be1e5ebec7d5bd14f71427d1e84f3dd0314c0f7b2291e5b200ac8c7c3b92560405160405180910390a45b505b836004600085815260200190815260200160002060006101000a81548173ffffffffffffffffffffffffffffffffffffffff021916908373ffffffffffffffffffffffffffffffffffffffff16021790555050505050565b611939838383611af8565b6119ed57600073ffffffffffffffffffffffffffffffffffffffff168373ffffffffffffffffffffffffffffffffffffffff16036119ae57806040517f7e2732890000000000000000000000000000000000000000000000000000000081526004016119a591906120e8565b60405180910390fd5b81816040517f177e802f0000000000000000000000000000000000000000000000000000000081526004016119e4929190612b56565b60405180910390fd5b505050565b606060405180602001604052806000815250905090565b6060611a1482610c58565b506000611a1f6119f2565b90506000815111611a3f5760405180602001604052806000815250611a6a565b80611a4984611bb9565b604051602001611a5a929190612b32565b6040516020818303038152906040525b915050919050565b611a7c8383610fd8565b611a896000848484611362565b505050565b60007f01ffc9a7000000000000000000000000000000000000000000000000000000007bffffffffffffffffffffffffffffffffffffffffffffffffffffffff1916827bffffffffffffffffffffffffffffffffffffffffffffffffffffffff1916149050919050565b60008073ffffffffffffffffffffffffffffffffffffffff168373ffffffffffffffffffffffffffffffffffffffff1614158015611bb057508273ffffffffffffffffffffffffffffffffffffffff168473ffffffffffffffffffffffffffffffffffffffff161480611b715750611b708484610add565b5b80611baf57508273ffffffffffffffffffffffffffffffffffffffff16611b9783610ce0565b73ffffffffffffffffffffffffffffffffffffffff16145b5b90509392505050565b606060006001611bc884611c87565b01905060008167ffffffffffffffff811115611be757611be66121a6565b5b6040519080825280601f01601f191660200182016040528015611c195781602001600182028036833780820191505090505b509050600082602001820190505b600115611c7c578080600190039150507f3031323334353637383961626364656600000000000000000000000000000000600a86061a8153600a8581611c7057611c6f612b7f565b5b04945060008503611c27575b819350505050919050565b600080600090507a184f03e93ff9f4daa797ed6e38ed64bf6a1f0100000000000000008310611ce5577a184f03e93ff9f4daa797ed6e38ed64bf6a1f0100000000000000008381611cdb57611cda612b7f565b5b0492506040810190505b6d04ee2d6d415b85acef81000000008310611d22576d04ee2d6d415b85acef81000000008381611d1857611d17612b7f565b5b0492506020810190505b662386f26fc100008310611d5157662386f26fc100008381611d4757611d46612b7f565b5b0492506010810190505b6305f5e1008310611d7a576305f5e1008381611d7057611d6f612b7f565b5b0492506008810190505b6127108310611d9f576127108381611d9557611d94612b7f565b5b0492506004810190505b60648310611dc25760648381611db857611db7612b7f565b5b0492506002810190505b600a8310611dd1576001810190505b80915050919050565b6000604051905090565b600080fd5b600080fd5b60007fffffffff0000000000000000000000000000000000000000000000000000000082169050919050565b611e2381611dee565b8114611e2e57600080fd5b50565b600081359050611e4081611e1a565b92915050565b600060208284031215611e5c57611e5b611de4565b5b6000611e6a84828501611e31565b91505092915050565b60008115159050919050565b611e8881611e73565b82525050565b6000602082019050611ea36000830184611e7f565b92915050565b600081519050919050565b600082825260208201905092915050565b60005b83811015611ee3578082015181840152602081019050611ec8565b60008484015250505050565b6000601f19601f8301169050919050565b6000611f0b82611ea9565b611f158185611eb4565b9350611f25818560208601611ec5565b611f2e81611eef565b840191505092915050565b60006020820190508181036000830152611f538184611f00565b905092915050565b6000819050919050565b611f6e81611f5b565b8114611f7957600080fd5b50565b600081359050611f8b81611f65565b92915050565b600060208284031215611fa757611fa6611de4565b5b6000611fb584828501611f7c565b91505092915050565b600073ffffffffffffffffffffffffffffffffffffffff82169050919050565b6000611fe982611fbe565b9050919050565b611ff981611fde565b82525050565b60006020820190506120146000830184611ff0565b92915050565b61202381611fde565b811461202e57600080fd5b50565b6000813590506120408161201a565b92915050565b6000806040838503121561205d5761205c611de4565b5b600061206b85828601612031565b925050602061207c85828601611f7c565b9150509250929050565b60008060006060848603121561209f5761209e611de4565b5b60006120ad86828701612031565b93505060206120be86828701612031565b92505060406120cf86828701611f7c565b9150509250925092565b6120e281611f5b565b82525050565b60006020820190506120fd60008301846120d9565b92915050565b60006020828403121561211957612118611de4565b5b600061212784828501612031565b91505092915050565b61213981611e73565b811461214457600080fd5b50565b60008135905061215681612130565b92915050565b6000806040838503121561217357612172611de4565b5b600061218185828601612031565b925050602061219285828601612147565b9150509250929050565b600080fd5b600080fd5b7f4e487b7100000000000000000000000000000000000000000000000000000000600052604160045260246000fd5b6121de82611eef565b810181811067ffffffffffffffff821117156121fd576121fc6121a6565b5b80604052505050565b6000612210611dda565b905061221c82826121d5565b919050565b600067ffffffffffffffff82111561223c5761223b6121a6565b5b61224582611eef565b9050602081019050919050565b82818337600083830152505050565b600061227461226f84612221565b612206565b9050828152602081018484840111156122905761228f6121a1565b5b61229b848285612252565b509392505050565b600082601f8301126122b8576122b761219c565b5b81356122c8848260208601612261565b91505092915050565b600080600080608085870312156122eb576122ea611de4565b5b60006122f987828801612031565b945050602061230a87828801612031565b935050604061231b87828801611f7c565b925050606085013567ffffffffffffffff81111561233c5761233b611de9565b5b612348878288016122a3565b91505092959194509250565b600067ffffffffffffffff82111561236f5761236e6121a6565b5b61237882611eef565b9050602081019050919050565b600061239861239384612354565b612206565b9050828152602081018484840111156123b4576123b36121a1565b5b6123bf848285612252565b509392505050565b600082601f8301126123dc576123db61219c565b5b81356123ec848260208601612385565b91505092915050565b6000806040838503121561240c5761240b611de4565b5b600061241a85828601612031565b925050602083013567ffffffffffffffff81111561243b5761243a611de9565b5b612447858286016123c7565b9150509250929050565b6000806040838503121561246857612467611de4565b5b600061247685828601612031565b925050602061248785828601612031565b9150509250929050565b7f4e487b7100000000000000000000000000000000000000000000000000000000600052602260045260246000fd5b600060028204905060018216806124d857607f821691505b6020821081036124eb576124ea612491565b5b50919050565b60006060820190506125066000830186611ff0565b61251360208301856120d9565b6125206040830184611ff0565b949350505050565b7f4e6f2066756e647320617661696c61626c650000000000000000000000000000600082015250565b600061255e601283611eb4565b915061256982612528565b602082019050919050565b6000602082019050818103600083015261258d81612551565b9050919050565b600081905092915050565b50565b60006125af600083612594565b91506125ba8261259f565b600082019050919050565b60006125d0826125a2565b9150819050919050565b7f5769746864726177616c206661696c6564000000000000000000000000000000600082015250565b6000612610601183611eb4565b915061261b826125da565b602082019050919050565b6000602082019050818103600083015261263f81612603565b9050919050565b7f4e65656420746f20706179207570210000000000000000000000000000000000600082015250565b600061267c600f83611eb4565b915061268782612646565b602082019050919050565b600060208201905081810360008301526126ab8161266f565b9050919050565b7f736f6c64206f7574000000000000000000000000000000000000000000000000600082015250565b60006126e8600883611eb4565b91506126f3826126b2565b602082019050919050565b60006020820190508181036000830152612717816126db565b9050919050565b7f4e487b7100000000000000000000000000000000000000000000000000000000600052601160045260246000fd5b600061275882611f5b565b91507fffffffffffffffffffffffffffffffffffffffffffffffffffffffffffffffff820361278a5761278961271e565b5b600182019050919050565b60008190508160005260206000209050919050565b60006020601f8301049050919050565b600082821b905092915050565b6000600883026127f77fffffffffffffffffffffffffffffffffffffffffffffffffffffffffffffffff826127ba565b61280186836127ba565b95508019841693508086168417925050509392505050565b6000819050919050565b600061283e61283961283484611f5b565b612819565b611f5b565b9050919050565b6000819050919050565b61285883612823565b61286c61286482612845565b8484546127c7565b825550505050565b600090565b612881612874565b61288c81848461284f565b505050565b5b818110156128b0576128a5600082612879565b600181019050612892565b5050565b601f8211156128f5576128c681612795565b6128cf846127aa565b810160208510156128de578190505b6128f26128ea856127aa565b830182612891565b50505b505050565b600082821c905092915050565b6000612918600019846008026128fa565b1980831691505092915050565b60006129318383612907565b9150826002028217905092915050565b61294a82611ea9565b67ffffffffffffffff811115612963576129626121a6565b5b61296d82546124c0565b6129788282856128b4565b600060209050601f8311600181146129ab5760008415612999578287015190505b6129a38582612925565b865550612a0b565b601f1984166129b986612795565b60005b828110156129e1578489015182556001820191506020850194506020810190506129bc565b868310156129fe57848901516129fa601f891682612907565b8355505b6001600288020188555050505b505050505050565b600081519050919050565b600082825260208201905092915050565b6000612a3a82612a13565b612a448185612a1e565b9350612a54818560208601611ec5565b612a5d81611eef565b840191505092915050565b6000608082019050612a7d6000830187611ff0565b612a8a6020830186611ff0565b612a9760408301856120d9565b8181036060830152612aa98184612a2f565b905095945050505050565b600081519050612ac381611e1a565b92915050565b600060208284031215612adf57612ade611de4565b5b6000612aed84828501612ab4565b91505092915050565b600081905092915050565b6000612b0c82611ea9565b612b168185612af6565b9350612b26818560208601611ec5565b80840191505092915050565b6000612b3e8285612b01565b9150612b4a8284612b01565b91508190509392505050565b6000604082019050612b6b6000830185611ff0565b612b7860208301846120d9565b9392505050565b7f4e487b7100000000000000000000000000000000000000000000000000000000600052601260045260246000fdfe68747470733a2f2f6c6176656e6465722d66616e7461737469632d616e74656c6f70652d3639382e6d7970696e6174612e636c6f75642f697066732f516d4e655370455674436e465068564d335a69786250766578467a4251746b6d5174696b6a596a6938705a484834a264697066735822122043d3cc205b59c71e419065db3fdacba39322f64725fe465882ddee25584ddef064736f6c634300081b0033",
  "linkReferences": {},
  "deployedLinkReferences": {}
}